:100000000C949A010C94B7010C94B7010C94B701AD
:100010000C94B7010C94B7010C94B7010C94B70180
:100020000C94B7010C94B7010C94FF0B0C94410B8A
:100030000C9487130C94B7010C94B7010C94B7017E
:100040000C94B7010C94B7010C94B7010C94B70150
:100050000C94B7010C9446130C94B7010C94B7019F
:100060000C94B7010C94B7010C94B7010C94B70130
:100070000C94B7010C94B7010C94B7010C94B70120
:100080000C94B7010C94B7010C94B7010C94B70110
:100090000C94B7010C94B7010C94B7010C94B70100
:1000A0000C94B7010C94B7010C94B701B202B702DB
:1000B000C102B502BA02BF02BD020E040E04410421
:1000C0004104BE04DD05DD05DD05DC0450056105E8
:1000D00061052D0730073307360739073C073F070F
:1000E00059098009290B8009290BCC09EF09290B33
:1000F000E40AF40AD316E016AA15FC16EC16FA1652
:10010000FA16F816FA1605010980A10185031901EE
:100110002AB700150126B700950175108100C005AA
:100120000C0901A101850419012AA002150126A0CC
:1001300002950175108100C005010906A10185061F
:10014000050719E029E715002501950875018102C9
:100150000507190029EF1500250195F075018102A9
:100160000508190129059505750191029501750389
:100170009101C00660FF0961A1010962150026FF17
:10018000009520750881020963150026FF0095205F
:1001900075089102C005010906A101050719E029AA
:1001A000E715002501950875018102950175088103
:1001B000010507190029FF150026FF00950675089F
:1001C000810005081901290515002501950575010E
:1001D0009102950175039101C009025B00030100C2
:1001E000A0FA090400000103010100092111010026
:1001F00001224400070581030800010904010002EF
:1002000003000000092111010001222200070582DC
:100210000320000107050303200001090402000177
:1002200003000000092111010001226D000705846F
:1002300003200001120100020000000897327449F7
:1002400001000102000116034500720067006F0003
:1002500044006F007800200045005A000000280389
:100260005A005300410020005400650063006800FC
:100270006E006F006C006F006700790020004C007A
:1002800061006200730000000403090464002B0095
:10029000E1003900620000001E0014000400350077
:1002A000E0004B001F001A0016001D00E2002800AD
:1002B0002000080007001B00E3002C0021001500AF
:1002C000090006005C004A00220017000A0019001D
:1002D00000005900670054000000550000005A005B
:1002E000630056000000570000005B0023001C0064
:1002F0000B00050000005C00240018000D00110038
:100300005D004D0025000C000E001000E7002A00E3
:10031000260012000F003600E60029002700130017
:1003200033003700E4004E002D002F00E5003800B8
:100330006100000011241FBECFEFDAE0DEBFCDBFA9
:1003400011E0A0E0B1E0EEE1F8E302C005900D920B
:10035000A636B107D9F722E0A6E6B1E001C01D92AA
:10036000AE38B207E1F70E9464140C940D1C0C9493
:100370000000A6E0B0E0EFEBF1E00C94591A4983DD
:100380005A8349815A81992361F0222351F0CA018D
:100390000E941817182F682F89819A810E94881748
:1003A00004C0CA010E945417182F69817A81812FD5
:1003B0000E94690E2696E3E00C94751A10926D0166
:1003C0000E9424182FEF84E39CE02150804090404D
:1003D000E1F700C000009AE088E10FB6F894A89514
:1003E000809360000FBE90936000FFCFABE1B0E060
:1003F000ECEFF1E00C94581A4E8B5F8B688F798F7D
:100400008A8F9B8F192F911110922102DE011F9666
:1004100087E0FD0111928A95E9F786E0FE01769664
:1004200001900D928A95E1F70A8D002341F021E0B9
:100430004F85588969897A89C8010E94B9010B8B57
:100440001C8B87E0FE013F96DE01189601900D920D
:100450008A95E1F7CE0108960E948C1081112CC07C
:1004600087E0FE013896DE01119601900D928A9583
:10047000E1F76C85662301F12091C50130E0C901E7
:100480000196877099274091FE0150E084179507E7
:1004900061F16D8397E0929FD001939FB00D11247D
:1004A000AA53BE4FFE01319601900D929A95E1F745
:1004B0008093C5010E94291017E08091FE01909160
:1004C000C501891709F1189FC00111248A539E4F55
:1004D0000E948C108823C1F08091FE0190E001966B
:1004E000877099278093FE01E8CF10926D010E94DA
:1004F00024181092C5011092FE01EEEBF1E087E0A6
:10050000DF011D928A95E9F76B96E4E00C94741A6A
:10051000982F92959F7019F0892F24E001C020E058
:10052000982F9695969511F02E5F892F982F969576
:1005300009F02F5F822F0895CF93C82F0E94880261
:1005400056985E9825982D9826982E9827982F983B
:1005500090E0FC013197E730F105A8F4EA5AFF4F2B
:100560000C94D91A259A2D9A0EC0259A2D9A269A5E
:100570002E9A09C0259A2D9A04C0259A2D9A269A5A
:100580002E9A279A2F9A8C2FCF910895A0E2B0E04F
:10059000ECECF2E00C94511AFC018481882309F4FC
:1005A00033C37F0121E04081518162817381958154
:1005B0000E94B9018C0180919B01882399F0F70179
:1005C0008581811102C087E001C086E08983F7013F
:1005D00080818A8381818B838EEF8C83CE0101960B
:1005E0000E94330D0115FEE71F07D1F5F701858144
:1005F0008823B1F190913A0281E0890F8770987F4A
:10060000853020F4892B80933A0202C090933A02FD
:1006100080913A028770FFEF8F9FC001112495955A
:100620008795959587959927909389008093880061
:1006300090938B0080938A0090938D0080938C0020
:1006400040913A0250913B0260913C0270913D0210
:100650008FE090E00E94B71A80913F020E949C02B6
:10066000F7018581882309F483C00330FCE71F0765
:1006700009F45DC048F401158CE71807A9F00130B2
:100680001C4709F45AC074C00B35ECE71E0709F487
:100690005EC00C35FCE71F0709F451C00A351C4742
:1006A00009F066C081E054C010926D010E942418C8
:1006B0008FEF94E3ECE081509040E040E1F700C020
:1006C0000000F89481E08093E00080E28093D800FD
:1006D0001092C9008FE19EE40197F1F700C000007D
:1006E0001DBA109268001CBC10BE1FBA10927A008E
:1006F00010926E0010926F001092710010927200B2
:100700001092C9001092BC0014B817B81AB81DB8DE
:1007100010BA1092BC0015B818B81BB81EB811BAA0
:100720000C94003F8091FF018770A9F46DC26FEFB8
:100730007FEF80E090E00E94C31A0E94DE0180916A
:100740006B0182FB882780F991E0892701C080E056
:100750000E9412100DC0F7018581882309F454C24C
:1007600080916B0182FF50C282E00E94FB0F4CC25D
:10077000F701858100811181882349F0C8010E9419
:100780001817D82E682FC8010E94881704C0C80106
:100790000E945417D82EB8018D2D0E94690E0E9418
:1007A000820ED82E192FA82EF7010581C680C2947B
:1007B0009FE0C9228091FF01877001F10023F1F0D1
:1007C000812F807F803469F080E28D0D8830B0F019
:1007D000812F807E803229F4F1E0FD1578F4CC2061
:1007E00069F080916B0182FF09C082E00E94FB0FDB
:1007F0008091FF018770BB24B3948111B12C912E9D
:1008000092948FE09822892D90E08C30910508F029
:10081000D4C1FC01E35AFF4F0C94D91A812F807F79
:100820001F70882311F01295107F0023B9F0112357
:1008300009F4B1C180E28D0D883010F0A11006C01E
:1008400090916D01192B10936D0105C090912102BB
:10085000192B109321020E94A60F9DC18D2D0E947D
:100860005318112309F4A9C180E28D0D883088F155
:10087000AA2079F110959091210219231093210259
:100880002BC0812F807F1F70803211F01295107F56
:100890008D2DAA2029F021E0A21609F44CC055C0E4
:1008A00080916B0182FD1BC0002369F0112339F098
:1008B00090916D01192B10936D010E94A60F80E09D
:1008C0000E94AC187AC180E00E945318112309F4E9
:1008D00074C1812F0E949F0F0E94A60F6EC100233A
:1008E00081F0CC20B1F181E0C81267C19091200263
:1008F000812F8923181709F460C1192B1093200246
:100900005CC1C1105AC1812F0E94421880912002FF
:10091000912F982329F0912F90958923809320027D
:1009200080916901912F982309F447C11095812383
:100930008093690142C1002329F091E09C1508F4DD
:100940003CC107C0C11039C115C0002331F0C1102E
:1009500022C1812F0E94491830C1CC2059F089331F
:1009600009F028C1EFEFF7EE23E0E150F04020401E
:10097000E1F71EC1812F0E9442181FC1812F869569
:100980008695837019F0813061F017C1002321F042
:100990008D2D912F937002C080E090E00E94321460
:1009A00012C1002321F08D2D912F937002C080E0A1
:1009B00090E00E940D1407C1812F8370A9F50111E9
:1009C00000C14D2D429546954770440F440F8D2D23
:1009D0008F7090E09C01042E01C0220F0A94EAF768
:1009E000D4FE08C08FE090E001C0880F4A95EAF776
:1009F000809501C080E0169516951370123069F04D
:100A000088F490913E02113019F0822B892302C0A4
:100A1000922B892B0E94FE17D4C0822B90913E020C
:100A20008927F8CF822BF6CF002319F0812F817010
:100A300001C08695882309F4C4C04D2D4295469582
:100A40004770440F440F8D2D8F7090E09C01042E51
:100A500001C0220F0A94EAF7D4FE08C08FE090E0AC
:100A600001C0880F4A95EAF7809501C080E016958D
:100A700016951370123059F078F490913F021130AE
:100A800019F0822B892309C0922B892B06C0822B57
:100A900090913F02892701C0822B0E94BD1791C00F
:100AA0001F70002339F0812F0E94F2178D2D0E94B4
:100AB000491887C08D2D0E944218812F0E94E5178A
:100AC00080C08D2D92EFA91671F19A1538F0E0EFE4
:100AD000AE1659F0F1EFAF1609F159C023EFA21687
:100AE00049F194EFA916B1F052C0002371F0C11082
:100AF00064C01F7181E090E0012E01C0880F0A944C
:100B0000EAF790913F02892720C0E1E0EC1508F454
:100B100054C0EFCF80916B0182FD1AC0002329F0F1
:100B2000812F8F7127C00023D9F3812F8F710E94ED
:100B3000E51743C0002341F01F7181E0012E01C081
:100B4000880F0A94EAF701C080E00E94BD1735C003
:100B5000002399F01F71812F0E94F21780916B0181
:100B600082FF07C0F8E01F9FC001112483608093BB
:100B7000FF01812F0E94F21720C081E00E94FB0F2D
:100B800021E02C15D0F482E00E94FB0F16C0002358
:100B900021F0CC2029F28D2D93CECC2031F2893357
:100BA00049F48FEF97EEE3E081509040E040E1F7A9
:100BB00000C000008D2D0E94531888EF890D8430ED
:100BC00010F40E945714BB20A9F08091FF0180FD12
:100BD00011C0F70115828695869586950E94F217B9
:100BE000C7010E94C6028091FF0186958695869571
:100BF0000E94E51720E0F7014081518162817381F5
:100C0000848195810E94B901A096EBE00C946D1A45
:100C100080E290E09093100180930F018091680131
:100C200081110EC00E94661981E0809368012FEF48
:100C300083ED90E3215080409040E1F700C0000038
:100C400060E570E080E40E946C199093100180933D
:100C50000F01892B09F04EC060E570E080E00E9432
:100C6000DF199093100180930F01892B09F042C086
:100C700060E570E080E00E94DF199093100180939E
:100C80000F01892BB9F560E570E08FE30E94DF1951
:100C90009093100180930F01892B61F50E94321A05
:100CA00060E570E080E40E946C19909310018093DD
:100CB0000F01892BF9F460E570E08CE00E94DF19E8
:100CC0009093100180930F01892BA1F460E570E0EF
:100CD00080E00E94DF199093100180930F01892B0F
:100CE00049F460E570E08FE30E94DF1990931001F2
:100CF00080930F010E94321A80910F010895CF93C3
:100D0000DF9356985E9825982D9826982E982798C8
:100D10002F98C8E8D0E08FEF90E099838883AAE805
:100D2000B0E011969C938E93ECE8F0E09183808381
:100D3000259A2D9A2FEF80E792E021508040904035
:100D4000E1F700C00000269A2E9A2FEF80E792E08C
:100D5000215080409040E1F700C00000279A2F9A70
:100D60002FEF80E792E0215080409040E1F700C0F3
:100D7000000025982D982FEF80E792E021508040C9
:100D80009040E1F700C0000026982E982FEF80E7F2
:100D900092E0215080409040E1F700C00000279889
:100DA0002F9880913A0287702FEF829FC001112403
:100DB0009595879595958795992799838883119619
:100DC0009C938E939183808356985E9825982D9856
:100DD00026982E9827982F98DF91CF910895CF933A
:100DE000E82F873080F580910F0190911001892BB9
:100DF00009F047C0CE2F60E570E080E40E946C19D6
:100E00009093100180930F01892BD1F460E570E07D
:100E100082E10E94DF199093100180930F01892BCA
:100E200079F481E090E001C0880FCA95EAF760E5A7
:100E300070E080950E94DF199093100180930F015C
:100E40000E94321A1EC090E0FC013797E730F1058E
:100E5000C0F4E759FF4F0C94D91A209A289811C072
:100E6000219A29980EC0229A2A980BC0239A2B986F
:100E700008C0529A5A9805C0539A5B9802C03E9A8D
:100E80004698CF91089520982898219829982298DB
:100E90002A9823982B9852985A9853985B983E9882
:100EA00046980895CF93873040F580910F01909137
:100EB0001001892B59F560E570E081E40E946C19FE
:100EC0009093100180930F01892B11F0C0E011C0A5
:100ED00080E590E00E940E1A97FF05C090931001E4
:100EE00080930F01F3CFC82FC0951092100110927C
:100EF0000F010E94321A8C2F0AC09FB18FB1807FE0
:100F0000869586959370892B809501C080E0CF915E
:100F100008958098889A8198899A84988C9A85985F
:100F20008D9A86988E9A87988F9A089580919301CA
:100F300087FF11C08091E80082FD05C080919D016E
:100F40008111F8CF11C08091E8008B770BC08091A0
:100F50009D01882349F08091E80080FFF8CF8091BF
:100F6000E8008E778093E8000895982F973068F511
:100F70009093E900981739F07091EC002091ED0002
:100F80005091F00003C0242F762F50E021FD02C0C5
:100F90009F5FECCF3091EB003E7F3093EB003091C0
:100FA000ED003D7F3093ED003091EB0031603093E8
:100FB000EB007093EC002093ED005093F000209133
:100FC000EE0027FDE5CF80E008958F708093E90063
:100FD00081E008952091990130919A0126173707F1
:100FE00048F06115710539F42091E8002E772093BF
:100FF000E80001C0B901FC0120E06115710579F13B
:1010000080919D018823F1F18530F1F18091E80014
:1010100083FD3CC08091E80082FD2EC08091E800F5
:1010200080FFEBCF2091F3008091F20090E0922BB3
:101030006115710551F08830910538F421912093A4
:10104000F100615071090196F3CF21E0089709F092
:1010500020E08091E8008E778093E800CECF2111C8
:10106000CFCF0AC080919D01882361F0853061F067
:101070008091E80083FD0AC08091E80082FFF2CFF2
:1010800080E0089582E0089583E0089581E0089566
:10109000089543E050E0BC0184E00E9422130895CB
:1010A000CF93DF93EC0180910601811105C048E0E8
:1010B00050E0BE0181E00BC080916A0187FF03C050
:1010C00040E284E002C048E081E050E0BE010E94BE
:1010D000221380E2FE01A0E7B1E001900D928A9513
:1010E000E1F7DF91CF910895AAE2B0E0EAE7F8E0F6
:1010F0000C94591AE3E9F1E08BE991E02091F100B9
:1011000021938E179F07D1F780919401833009F4C2
:1011100063C030F4813071F0823009F49FC0B6C0F2
:101120008A3009F48BC08B3009F46EC0893009F025
:10113000ADC020C080919301813A09F0A7C0809191
:10114000E800877F8093E800809197019091980153
:10115000892B21F460E280E791E003C060E080E049
:1011600090E070E00E94EA078091E8008B7780931E
:10117000E8008CC080919301813209F087C0809192
:10118000970190919801009719F0029709F07EC09D
:101190008091E800877F8093E8008091E80082FDDD
:1011A00005C080919D018111F8CF70C02091F3009E
:1011B0008091F20090E0922B029731F48091F1003F
:1011C000813011F0863021F48091F10080936F011D
:1011D0008091E8008B7756C080919301813A09F0A5
:1011E00055C08091970190919801892B09F04EC0CC
:1011F0008091E800877F8093E8008091E80080FF7D
:10120000FCCF8091060139C0809193018132F1F5C4
:101210008091970190919801892BC1F58091E80008
:10122000877F8093E8000E949607809195018093C4
:10123000060110926D010E94241828C0809193012C
:10124000813221F58091E800877F8093E8000E9439
:1012500096078091960180936E0118C0809193014A
:10126000813AA1F48091E800877F8093E800809123
:10127000E80080FFFCCF80916E018093F1008091A7
:10128000E8008E778093E8000E9496078091E8003E
:1012900083FFDFC18091930190919401492F50E029
:1012A0004A30510508F0D5C1FA01E059FF4F0C94BE
:1012B000D91A803821F0823809F0CBC108C080915A
:1012C000900190919101992389F082600FC08091E3
:1012D00097018F70873008F0BCC18093E90080913E
:1012E000EB0085FB882780F91092E9009091E800D7
:1012F000977F9093E8008093F1001092F10070C105
:10130000282F2D7F09F0A5C1882319F0823061F0C4
:10131000A0C180919501813009F09BC1933009F003
:1013200080E0809391012EC08091950181112AC0A7
:10133000809197018F702FEF280F263008F089C118
:101340008093E9002091EB0020FF1CC0933021F432
:101350008091EB00806214C09091EB0090619093BB
:10136000EB0021E030E0A90102C0440F551F8A952F
:10137000E2F74093EA001092EA008091EB00886067
:101380008093EB001092E9008091E800877F8093C2
:10139000E8000E9496075DC181115BC11091950123
:1013A0001F778091E3008078812B8093E300809108
:1013B000E800877F8093E8000E9496078091E8000C
:1013C00080FFFCCF8091E30080688093E3001111DF
:1013D00002C082E001C083E080939D013AC1805841
:1013E000823008F036C120919501309196012C3D54
:1013F00053E0350779F583E08A838AE289834FB722
:10140000F894DE01139620E03EE051E2E32FF0E095
:1014100050935700E49120FF03C0E295EF703F5FC7
:10142000EF708E2F90E0EA3010F0C79601C0C096A2
:101430008D939D932F5F243149F74FBF8091E80032
:10144000877F8093E8006AE270E0CE0101960E94F7
:10145000EA07B4C08091970190919801432F5527D6
:1014600043305105A9F068F44130510509F400C139
:101470004230510509F0EDC08BE590E0E9EDF1E077
:101480004BC04132510529F14232510589F1E1C089
:10149000C901992781309105A1F058F0029709F010
:1014A000D8C0E6E4F2E0E4918E2F90E0E6E4F2E0CA
:1014B00030C0E8E8F2E0E4918E2F90E0E8E8F2E056
:1014C00028C0EEE5F2E0E4918E2F90E0EEE5F2E048
:1014D00020C08330910508F0BCC0880F991FFC0123
:1014E000E65EFE4F0190F081E02D89E090E014C0AF
:1014F0008330910508F0ADC0FC01EE0FFF1FEC5EDC
:10150000FE4F0190F081E02DDC01AF5EBE4F8C916B
:1015100090E0009709F49DC02091E800277F209378
:10152000E8002091990130919A012817390708F4B1
:10153000C90140E0009789F120919D01222309F41F
:101540003DC02530D9F12091E80023FD37C020911E
:10155000E80022FD2FC02091E80020FFEBCF409152
:10156000F3002091F20030E0342B009759F028303E
:10157000310540F444914093F100319601972F5F7B
:101580003F4FF3CF41E02830310509F040E0209192
:10159000E8002E772093E800CDCF4111CDCF0AC0CF
:1015A00080919D01882351F0853041F08091E800C1
:1015B00083FD04C08091E80082FFF2CF8091E800B3
:1015C0008B778093E80045C0803809F042C0809155
:1015D000E800877F8093E800809192018093F1007A
:1015E0008091E8008E77D3CE811133C08091950130
:1015F000909196019927029764F58091E800877F82
:101600008093E80010919501109392010E94960733
:10161000111106C08091E30087FD02C081E001C086
:1016200084E080939D0142E061EC81E00E94B50777
:1016300042E261EC84E00E94B50742E261EC82E0A4
:101640000E94B50742E260EC83E00E94B5078091FA
:101650009D018091E80083FF10C08091E800877FA2
:101660008093E8008091EB0080628093EB0005C0DE
:1016700082E190E0E4E3F2E04FCFAA96E3E00C943D
:10168000751A1F920F920FB60F9211242F933F934A
:101690004F935F936F937F938F939F93AF93BF937A
:1016A000CF93DF93EF93FF93C091E900CF708091C8
:1016B000EC00D82FD17080FDD0E81092E900809125
:1016C000F000877F8093F00078940E947408109255
:1016D000E9008091F00088608093F000CD2BCF70FE
:1016E000C093E900FF91EF91DF91CF91BF91AF914E
:1016F0009F918F917F916F915F914F913F912F912A
:101700000F900FBE0F901F901895E8EDF0E08081CC
:101710008E7F80831092E2001092DA001092E10036
:10172000A0EEB0E08C9181608C9380818F77808374
:1017300019BCA7EDB0E08C918E7F8C9380818F7E59
:10174000808310926C010895A0E0B0E0EAEAFBE02B
:101750000C94541AC8EDD0E088818F7E8883E7ED21
:10176000F0E080818160808384E082BF81E08093AB
:101770006C0188818E7F888302EE10E0F801108270
:101780001092DA0081EEC82ED12CF60110828881E9
:101790008F77888388818068888388818F7D88831C
:1017A00019BC10929D011092920110929101109219
:1017B000900190EEE92EF12CF70180818B7F8083E0
:1017C00088818160888342E060E080E00E94B50704
:1017D000F60180818E7F8083F80180818160808323
:1017E000808188608083F70180818E7F80838881FB
:1017F00080618883CDB7DEB7E8E00C94701A1F9241
:101800000F920FB60F9211242F933F934F935F9334
:101810006F937F938F939F93AF93BF93EF93FF93B8
:101820008091E10082FF09C08091E20082FF05C043
:101830008091E1008B7F8093E1008091DA0080FF4E
:101840002AC08091D80080FF26C08091DA008E7F68
:101850008093DA008091D90080FF18C080E189BDB3
:1018600082E189BD09B400FEFDCF81E080939D0136
:1018700080916C0181110FC00E94850B0E94A40B06
:101880008091E20084608093E20005C019BC109250
:101890009D0110926C018091E10080FF17C0809142
:1018A000E20080FF13C08091E2008E7F8093E2000F
:1018B0008091E20080618093E2008091D800806294
:1018C0008093D80019BC85E080939D018091E10050
:1018D00084FF30C08091E20084FF2CC080E189BD8C
:1018E00082E189BD09B400FEFDCF8091D8008F7DD3
:1018F0008093D8008091E1008F7E8093E1008091F9
:10190000E2008F7E8093E2008091E200816080930C
:10191000E20080919201882311F084E007C0809159
:10192000E30087FD02C081E001C083E080939D0158
:1019300080919D018091E10083FF27C08091E200AA
:1019400083FF23C08091E100877F8093E10082E0E4
:1019500080939D01109292018091E1008E7F80938F
:10196000E1008091E2008E7F8093E2008091E200AE
:1019700080618093E20042E060E080E00E94B50771
:101980008091F00088608093F000FF91EF91BF910B
:10199000AF919F918F917F916F915F914F913F9107
:1019A0002F910F900FBE0F901F9018952091E4007B
:1019B0003091E50095E64091EC00842F817040FF66
:1019C00023C08091E80080FD1DC080919D01882387
:1019D00099F0853099F08091EB0085FD11C0409120
:1019E000E4005091E5002417350729F3915011F0D8
:1019F0009A01E1CF84E0089582E0089583E008959C
:101A000081E0089580E008954091E80042FFDDCF35
:101A10000895EF92FF920F931F93CF93DF937C0172
:101A20008B010E94D60C811119C0E7010115110527
:101A3000A1F08091E80085FD0AC08091E8008E77D2
:101A40008093E8000E94D60C882381F307C0899117
:101A50008093F10001501109E9CF80E0CDB7DEB7E6
:101A6000E6E00C94721ACF9320919D01243011F579
:101A7000C091E900CF703091EC00232F217030FD30
:101A800020E8C22B22E02093E9002091E80020FF0B
:101A90000EC040E050E060E270E00E94090D81114C
:101AA00010929B018091E8008E778093E800CF70C0
:101AB000C093E900CF91089580E0089590916A0164
:101AC00092FF10C041E0282F2471243009F040E03B
:101AD00031E0282F2871283009F030E0431711F049
:101AE0002CE0822793FF10C041E0282F247124317D
:101AF00009F040E031E0282F2871283109F030E06A
:101B0000431711F02CE0822730916B0130FF10C099
:101B100051E0282F2171213009F050E041E0282FB9
:101B20002871283009F040E0541711F029E082278D
:101B300031FF10C041E0282F2171213109F040E030
:101B400031E0282F2871283109F030E0431711F0D7
:101B500029E0822794FD877E08958238910569F1F6
:101B6000B0F48133910509F475C048F489329105C8
:101B700009F467C08A32910509F471C0089585336C
:101B8000910509F459C089339105B9F00895833E50
:101B9000910589F138F4803E9105D1F0823E91059E
:101BA00029F10895863E9105C9F1873E9105D9F145
:101BB000843E910509F06CC027C020916A0120FD88
:101BC00057C021FD55C020916B0123FD5BC00895D6
:101BD00080916A0180FD48C080916B0180FF48C000
:101BE00080916A0184FD46C083EE51C080916A01F4
:101BF00082FF3CC0F5CF80916A0182FD37C08091A1
:101C00006B0180FD35C0ECCF80916B0181FF36C048
:101C100080916A0184FD2EC087EE39C080916A01EF
:101C200083FF2AC0F5CF80916A0183FD25C0809192
:101C30006B0181FD23C0ECCF80916A0185FD22C03C
:101C40001FC080916A0185FD1BC080916B0183FFDD
:101C500019C00AC080916A0186FD16C017C0809124
:101C60006A0186FD13C010C089E311C082EE0FC067
:101C700080EE0DC080E00BC086EE09C084EE07C088
:101C800085E305C089E203C08AE201C081E390E0F8
:101C900008952091FE019091C50157E02917A9F000
:101CA00030E0529FF001539FF00D1124EA53FE4F94
:101CB0007181761306C07081781303C07581741327
:101CC00006C02F5F3F4F2770E9CF80E0089581E085
:101CD00008957E3090F4663080F4811110C0E62FB4
:101CE000F0E086E0789FE00DF11D1124EE0FFF1F5C
:101CF000E457FD4F85919491089580E001C081E003
:101D000090E008951F93CF93DF930E94AD0DEC01F7
:101D1000C11580E5D807E8F5C11590E4D90708F0AA
:101D2000A8C0C03ED10530F5CD3CD10508F094C027
:101D3000C83AD10578F4C53AD10508F083C0C1305E
:101D4000D10509F47CC008F4F2C0C430D10508F014
:101D5000F1C0EDC0C33CD10508F0E9C0C85AD0E0DD
:101D6000CC0FDD1FCD5DDE4F0990D881C02DCE0197
:101D70009464E1C0C11580E2D80708F0CBC0C1155A
:101D800091E0D90708F06BC0C83ED10508F4D2C075
:101D9000CEC0C03682E5D80728F5C03492E5D90711
:101DA00008F079C0C03282E5D80708F06CC0C115D0
:101DB00092E5D90708F481C04C2F4695469580E2FC
:101DC000489FA0011124C37021E030E0C90102C086
:101DD000880F991FCA95E2F7EA01C82BD92BCE01CB
:101DE0009D68A9C0C03A82E5D807B8F48C2F8F71DE
:101DF000C03892E5D90708F07BC08695869590E2B9
:101E0000899F90011124C37081E090E002C0880F87
:101E1000991FCA95E2F79A6868C0C03C82E5D80766
:101E200008F46DC0C03E92E5D90708F080C0CF71BC
:101E3000DD27DC2FCC27CE01806F906A7CC081E04B
:101E400090E079C0C55AD0E0C05EDE4F8881C82FCF
:101E5000D0E0CE0190646FC0CE0190656CC08D2F34
:101E60000E945E0D182FCE0199270E94AD0D1F71A3
:101E70005CC0CE0199270E94AD0DCC27DF70D06ADF
:101E80008C2B9D2B58C0CF71D0E0DC2FCC27CE01FE
:101E9000816F906A50C08C2F8F718695869590E2E5
:101EA000899F90011124C37081E090E002C0880FE7
:101EB000991FCA95E2F79C6818C08C2F8F710E94F9
:101EC0005E0D95E0D695C7959A95E1F7CF70D0E075
:101ED000DC2FCC27282F30E084FF05C084E0220FC0
:101EE000331F8A95E1F7D069CE01822B932B23C053
:101EF00090E0D82FCC27CE01846F906A1CC08C2F25
:101F00008F710E945E0D8F7190E0D82FCC27CE018B
:101F1000906211C08D2F8F710E945E0D182FCE011F
:101F200099270E94AD0D1F719062912B04C080E033
:101F300090E001C0CE01DF91CF911F91089580956F
:101F400090916D01892380936D01089590916D01A9
:101F500080912102982B90939E01809120028823EA
:101F6000D9F0892B80939E0180910601882331F05E
:101F700080916A0187FF02C08EE101C086E0E0EA3D
:101F8000F1E090E0815028F021912223D9F39F5F66
:101F9000F9CF91111092200240E250E060E072E02F
:101FA0008EE991E00E94001C892B21F180E2EEE98C
:101FB000F1E0A0E0B2E001900D928A95E1F7E091A6
:101FC0006002F09161023097A9F0809106018823A8
:101FD00059F080916A0187FF07C080919E0180932C
:101FE0009F0186E080939E010280F381E02D8EE9BF
:101FF00091E0099508959091FF0180958923809340
:10200000FF01282F277069F4981759F090916B0100
:1020100092FF07C08695869586950E94E5171092D7
:10202000FF01089590916B0192FB222720F9281758
:1020300079F080FB92F990936B0160916A01709145
:102040006B0184E090E00E94C31A82E00E94FB0FC3
:1020500008958091FE019091C501891719F08F5F55
:102060008770FBCF0895CF93DF938091C401829551
:102070008F7009F04EC08091C301882309F449C0D4
:102080008091FE014091C5015091BF016091BE0158
:10209000C091C001D091C10177E08417D1F190E0E7
:1020A000789FF001799FF00D1124DF01AA53BE4FF4
:1020B00014962C911497222349F111962C91119783
:1020C000251324C02C91261321C015962C91159709
:1020D00021111CC012962D913C9113972C1B3D0B86
:1020E000283C310598F48091C4018F708061809301
:1020F000C401E453FE4F80818F70806180838EEB3A
:1021000091E00E94C6020E94291003C001968770C8
:10211000C4CFDF91CF910895A4E1B0E0E2E9F0E10E
:102120000C94501A8C0186E0F801DE011F96019094
:102130000D928A95E1F7F8018481E5809EEB892E66
:1021400091E0992E9091C201911120C0882309F449
:1021500063C1EE2009F442C0C8010E940118F82EA4
:102160008823E1F187E0F801D40101900D928A956E
:10217000E1F78091C201813031F48091BE019091EC
:10218000BF010E9447170E94331048C1F801D08058
:10219000C180A280B380F090C3012091C001309132
:1021A000C101FF2009F4E7C0A501421B530B483CC5
:1021B000510508F09DC0882309F430C18091C40105
:1021C000282F207F9091BF01222361F09C1509F4F4
:1021D00060C0C8010E940118811163C0C8010E943B
:1021E000C6021AC19C1113C09091BE019D110FC06F
:1021F000E1100DC08F7080618093C4018EEB91E07F
:102200000E94C6028091C401F801868303C1E110D7
:102210003AC040E06C2D8D2D0E94490E40E06C2D9F
:102220008D2D0E94490EE82E8111F4C0DF86C88AE8
:102230008F8598890E944717292F22952F70243067
:1022400020F49F70223028F009C02A50223080F0FC
:1022500014C0992349F0811107C013C0992321F0BC
:10226000F8019681907F69F0805E883030F409C073
:10227000803F38F0815F833020F0C8010E94C602A1
:10228000EF2CFE2CCBC08091C40181608093C401EF
:10229000C1C09091BE019D119CCFE1109ACFF80171
:1022A00098C0EE2009F49ACF2091C401822F829524
:1022B0008F7090E002978CF08091BE019091BF01E9
:1022C00099878887BB86AA868091C2018C871D86E4
:1022D0002E87CE0108960E94C60287E0F801AEEB79
:1022E000B1E001900D928A95E1F70E94331094C0FD
:1022F0009091C401292F207F51F48EEB91E00E9430
:10230000C60287E0F40111928A95E9F783C0882319
:1023100009F484C08091BF018C110CC08091BE0172
:102320008D1108C0E11006C0F8019683C8010E9413
:10233000C6026AC0C8010E940118882309F44ECF62
:10234000EE2009F44BCF2091C401822F82958F702B
:1023500090E0029714F28091BE019091BF019A83A0
:102360008983BC82AB828091C2018D831E822F83C0
:10237000CE010196B0CFA21AB30AF8ECAF16B104A1
:1023800008F042C0882309F447C0FE2CEE2009F46F
:1023900025CF8091BF018C1129C08091BE018D1184
:1023A00025C09091C40190FD18C0892F82958F702F
:1023B000282F30E02115310581F0F80196832F3068
:1023C000310541F08F5F982F9295907F86818F70B5
:1023D000892B8683C8010E94C60287E0F801AEEB14
:1023E000B1E001900D928A95E1F718C0C8010E94F2
:1023F0000118811172CF8091C40181608093C40162
:10240000C8010E94C6020AC087E0F40111928A95B1
:10241000E9F704C0F12C02C0FF24F3948F2D6496D9
:10242000ECE00C946C1AA0E0B0E0E9E1F2E10C946D
:10243000541A80910F0190911001892B91F0809195
:1024400024028F5F8093240281110BC00E94080632
:1024500090E09093100180930F01892B11F40E945A
:102460007F060CE212E07801D0E0C0E087E0C82EE1
:10247000CC0E8C2F0E94EF068C2D0E94EF068C2F25
:102480000E9452078F73F7019081891721F0808392
:10249000DD24D39401C0D12C8C2D0E9452078F7360
:1024A000F7019781891719F0878381E001C080E0E7
:1024B000D82ADD290E944307CF5FFFEFEF1AFF0AFA
:1024C000C730A1F610922902C0912802CC2309F44A
:1024D0007DC00E947B132091260230912702AC011F
:1024E000421B530B9A0190932702809326024F3F81
:1024F000510509F018F4452B19F102C02FEF30E017
:102500001092280210922502E0912A02F0912B02EB
:10251000AF01425F5F4F90E030E08081882341F05F
:10252000281718F010829C2F03C0821B80833C2F39
:102530003196E417F50789F7309328029093250226
:10254000DD23B1F110922502E0912A02F0912B02D5
:102550008091290290912802A0E4B2E0AF01425F8D
:102560005F4F6EE1E80128813C91321779F03081AC
:1025700031110CC060832C9398819227282F30E072
:10258000292B81E0232B09F480E091E0319611960C
:102590000F5F1F4FE417F50729F7809329029093E7
:1025A000280280912902CDB7DEB7E8E00C94701ABA
:1025B00081E0909125029923A1F38111C3CF0E945C
:1025C0007B139093270280932602BCCFD111F7CFC3
:1025D00080E0EFCFA6E0B0E0E0EFF2E10C94581A13
:1025E0000E947B138C018091220290912302081794
:1025F000190781F019821A820E947B13682F498182
:102600005A81792F80E090E00E94F6011093230216
:10261000009322022696E4E00C94741A80916F01D4
:102620000895A0E2B0E0E7E1F3E10C945A1A9FEFBD
:1026300099838A83CE0101960E94330DA096E2E031
:102640000C94761A9B0190919D019430F1F48F7057
:102650008093E9008FEF9091E800815095FD06C0CE
:1026600095ED9A95F1F700008111F5CF8091E80082
:1026700085FF0BC0BA01C90140E050E00E94090D7E
:102680008091E8008E778093E800089578941F92F7
:102690000F920FB60F9211248F939F93AF93BF9316
:1026A0008091650290916602A0916702B0916802E4
:1026B0000196A11DB11D8093650290936602A093BF
:1026C0006702B0936802BF91AF919F918F910F9075
:1026D0000FBE0F901F9018959C014FB7F8948091F2
:1026E000650290916602A0916702B09168024FBFA7
:1026F000821B930B08952FB7F894809165029091F7
:102700006602A0916702B09168022FBF08951F92E0
:102710000F920FB60F9211248F939F93AF93BF9395
:1027200080916402811113C08091650290916602CC
:10273000A0916702B09168024196A11DB11D8093DE
:10274000650290936602A0936702B0936802BF91FE
:10275000AF919F918F910F900FBE0F901F90189582
:10276000209106012223C9F020916A0127FF15C09C
:10277000262F2695269526952E31C8F4FC01E20FCA
:10278000F11D677081E090E001C0880F6A95EAF75B
:1027900080959281892382830895FC010696228187
:1027A000621301C012823196E817F907C1F7089544
:1027B000209106012223C1F020916A0127FF14C055
:1027C000262F2695269526952E3130F5FC01E20F11
:1027D000F11D677081E090E001C0880F6A95EAF70B
:1027E0009281892B82830895FC0132962FEF30E08D
:1027F0004191641789F02F3F19F4411101C0232F33
:102800003F5F3630A9F72F3F39F0FC01E20FF11D91
:1028100027FDFA95628308950895A3E0B0E0E3E10F
:10282000F4E10C945A1A2091620230916302281745
:102830003907A1F09093630280936202E0916002F5
:10284000F0916102309751F024E029839B838A83C1
:102850000680F781E02DCE01019609952396E2E0EE
:102860000C94761AA3E0B0E0E8E3F4E10C945A1A71
:1028700020915E0230915F0228173907A1F09093F2
:102880005F0280935E02E0916002F09161023097F6
:1028900051F023E029839B838A830680F781E02D12
:1028A000CE01019609952396E2E00C94761AE09108
:1028B0006002F0916102309729F00190F081E02DE3
:1028C0000995089580E00895A6E4B0E0EAE6F4E111
:1028D0000C944E1A85B7806885BF85B7806885BF20
:1028E00084B7877F84BF0FB6F894A8958091600065
:1028F000886180936000109260000FBE90E080E8D5
:102900000FB6F89480936100909361000FBE8CE540
:102910009DE090936701809366010E94850B0E9461
:10292000A40B8091E20084608093E200789480910F
:102930009D018823A1F01091E9001F709091EC0097
:10294000892F817090FD80E8182B1092E90080910A
:10295000E80083FD0E9474081F701093E90082E074
:1029600084BD93E095BD9AEF97BD80936E000E9461
:10297000080690E09093100180930F010E94430796
:102980000E948907ECE2F2E0A0E4B2E011921D920D
:1029900022E0EA33F207D1F78EE090E00E94DF1ADE
:1029A00080932A0290932B02FC010E9611928E17AF
:1029B0009F07E1F789EA8093800089E08093810096
:1029C00024982C983F988AB18F7C8AB96E98479A40
:1029D0008BB180638BB9769A8FE090E00E94891A60
:1029E00060933A0270933B0280933C0290933D02C5
:1029F00067708FEF689FB001112475956795759585
:102A000067957727709389006093880070938B0097
:102A100060938A0070938D0060938C000E947F0603
:102A200080E090E00E948F1A863E9E4F09F472C0AB
:102A300066EE7EEF80E090E00E94C31A60E082E0E4
:102A400090E00E94A51A60E083E090E00E94A51A41
:102A500010923E0260E074E184E090E00E94C31AAC
:102A600060E086E090E00E94A51A6FEF87E090E0BA
:102A70000E94A51A40E050E0BA0188E090E00E9470
:102A8000B71A60E084E290E00E94A51A60E087E156
:102A900090E00E94A51A60E08CE090E00E94A51AE8
:102AA00060E08DE090E00E94A51A19821A821B82D4
:102AB0001C821D821E821F82188648E050E068E159
:102AC00070E0CE0101960E94951A40E050E0BA01F4
:102AD00080E290E00E94B71A10923A0210923B02F4
:102AE00010923C0210923D0284E080933A024091A1
:102AF0003A0250913B0260913C0270913D028FE09E
:102B000090E00E94B71A40E050E0BA0183E190E003
:102B10000E94B71A82E090E00E94811A80934E02D0
:102B200084E090E00E948F1A90936B0180936A0179
:102B300083E090E00E94811A0E94FE1780913F027C
:102B40000E949C0287E091E0909361028093600272
:102B500008E110E080919D01853009F05BC030E410
:102B6000B32E4EE4E42E42E0F42E50E1C52E62E195
:102B7000D62E80919D01853009F046C080919D013F
:102B8000843009F1109264020FB6F894A89500936E
:102B900060000FBEB092600083B7817F846083BF06
:102BA00083B7816083BF7894889583B78E7F83BF16
:102BB0000FB6F894A89580916000886180936000BA
:102BC000109260000FBE80919101882391F20E94C3
:102BD000080690E09093100180930F010E94430734
:102BE0000E948907E0E4F2E01192EE16FF06E1F799
:102BF0000E941312E0E4F2E08191811101C122E010
:102C0000EE34F207C9F7B5CF10926D010E94241877
:102C10000E9457140E9413122FE4C22E22E0D22EDB
:102C20002DE532E0A0E4B2E0F60191918D91892783
:102C30002E173F0719F08823C1F305C0811103C087
:102C40000E94EA1255C090E4892E92E0992EF12C50
:102C5000F40171904F01F601A080A724B9F1E12C95
:102C6000BB24B394662463948A2D8B2141F1229670
:102C7000EFAE22972396FFAE23970E947B132596F3
:102C80009FAF8EAF259726966FAE269791E0872D42
:102C90008B2109F490E027969FAF279722964FAD9E
:102CA000229723965FAD239724966FAD24972596A0
:102CB0007FAD259726968FAD26970E94F601E39467
:102CC000BB0CF6E0EF12D0CFF6017082F394FFEF69
:102CD000CF1ADF0A2EE0F212BBCF8FB7F8944091E3
:102CE00065025091660260916702709168028FBF21
:102CF0000E94571490915D02891769F080935D02DC
:102D00008FB7F89440916502509166026091670216
:102D1000709168028FBF80919D01843009F01ACFB5
:102D200083E08093E9008091E80082FF13CF8091D7
:102D3000E80085FF24C00E94D60C81111EC080E2ED
:102D4000E82EF12C6E0181E2C80ED11C09C08091E1
:102D5000F100F60181936F01F1E0EF1AF10869F0DB
:102D60008091E80085FDF3CF8091E8008B77809318
:102D7000E8000E94D60C882399F391E001C090E00E
:102D80008091E8008B778093E800992309F4E2CEE4
:102D9000E9A18E2F90E08930910570F5FC01E6588D
:102DA000FF4F0C94D91A19828CE0E9E5F1E0DE01BD
:102DB000129601900D928A95E1F78EEF8D8707C0EC
:102DC00081E080939B0184E089838EEF8A83CE012A
:102DD00001960E94330DBECE80919B01882309F499
:102DE000B9CE80E00E94BD178AA10E94F217B2CE30
:102DF00085E003C084E001C08FEF0E941113AACECA
:102E0000C9BCD9BC09B400FEFDCF8091D8008F7D2C
:102E10008093D8008091E00082608093E0008091F0
:102E2000E00081FDFCCF10926D010E942418A1CE1C
:102E3000CF92DF92FF920F931F93CF93DF936C019A
:102E400000913F0280913E02082BC7E0D0E010E0E5
:102E5000C8010C2E02C0959587950A94E2F780FD73
:102E600004C02197A8F7F12C09C0FC2EB6018C2FC5
:102E70000E94690E0E94820E019799F38F2DDF91B7
:102E8000CF911F910F91FF90DF90CF900895CF9336
:102E9000DF93EC010E941817BE010E94690E0E9488
:102EA000820EDF91CF910895292F9E3078F58630DC
:102EB00068F590E036E0239F800D911D1124682F66
:102EC000677023E0969587952A95E1F7FC01EE0F50
:102ED000FF1FE80FF91FE759FD4F40E050E080E089
:102EE000219130E0062E02C0369527950A94E2F72C
:102EF00021703327042E01C0220F0A94EAF7822B97
:102F00004F5F5F4F4330510559F7089580E00895B2
:102F1000292F9E3088F5863078F590E036E0239FA3
:102F2000800D911D1124282F277051E001C0550FED
:102F30002A95EAF723E0969587952A95E1F7FC0113
:102F4000EE0FFF1FE80FF91FE759FD4F20E030E0BB
:102F500070E04081CB01022E02C0969587950A94BD
:102F6000E2F78170819584278523842781932F5FE1
:102F70003F4F2330310569F70895A0E2B0E0E3EC5C
:102F8000F7E10C94591A0E949C02182F80919B0122
:102F90008823A9F02FEF80E792E0215080409040F5
:102FA000E1F700C0000085E08983812F0E9488023C
:102FB0008A838EEF8B83CE0101960E94330D10938E
:102FC0003F02A096E3E00C94751A21E030E001C0C6
:102FD000220F8A95EAF7209580913F0282230E9472
:102FE000BD17089521E030E001C0220F8A95EAF76D
:102FF00080913F02822B0E94BD17089580933E026C
:103000000895FC0124812223D9F0808191810E94BE
:10301000471792959F70963079F010F4925001C046
:103020009A50923068F4803F69F018F4883E40F47A
:1030300009C0843F29F406C0883E20F0813F11F08A
:1030400080E0089581E0089580910601882331F0A1
:1030500080916A0187FF02C08EE101C086E0E0EA4C
:10306000F1E0DF011D928A95E9F780E090E00E948F
:10307000321480E090E00E940D14109221020E9410
:10308000A60F0895882321F00E949F0F0E94A60F8B
:103090000895882339F090916D01892B80936D01FB
:1030A0000E94A60F0895882309F455C0682F82381E
:1030B00069F40E94571481FF4EC069E38EE991E0E4
:1030C0000E94D8130E94A60F69E30EC0833899F4BA
:1030D0000E94571480FF3FC063E58EE991E00E9493
:1030E000D8130E94A60F63E58EE991E00E94B01309
:1030F0000E94A60F0895843869F40E94571482FF35
:103100002AC067E48EE991E00E94D8130E94A60FBE
:1031100067E4EACF8CEF860F813A30F380E2860FC6
:10312000883048F4677081E001C0880F6A95EAF73B
:103130000E949F0FDDCF8BE5860F833028F480E05F
:1031400090E00E9432140895685A6B3120F480E0B8
:1031500090E00E940D140895CF93882309F4B4C021
:10316000C82F8238B1F40E94571481FDADC069E3C5
:103170008EE991E00E94D8130E94A60F2FEF87EEF0
:1031800093E0215080409040E1F700C0000069E3E7
:1031900017C08338E1F40E94571480FD95C063E5A1
:1031A0008EE991E00E94D8130E94A60F2FEF81EEC6
:1031B00094E0215080409040E1F700C0000063E5BA
:1031C0008EE991E00E94B0130E94A60F7DC0843862
:1031D000B1F40E94571482FD77C067E48EE991E054
:1031E0000E94D8130E94A60F2FEF81EE94E0215089
:1031F00080409040E1F700C0000067E4E1CF8CEF31
:103200008C0F813AB8F5809106018823E1F0809116
:103210006A0187FF18C0EC2FE695E695E695F0E089
:10322000E256FE4F8281282F30E04C2F477081E01C
:1032300090E002C0880F991F4A95E2F782239323FA
:10324000892B59F411C0E0EAF1E08191C81729F007
:1032500021E0E63AF207C9F707C06C2F8EE991E04A
:103260000E94B0130E94A60F6C2F8EE991E00E947D
:10327000D813AACF80E28C0F883068F4C77081E041
:1032800090E001C0880FCA95EAF790916D01892BF3
:1032900080936D0199CFEBE5EC0FE33040F4F0E063
:1032A000E05EFE4F808190E00E9432140DC0C85A4B
:1032B000CB3150F4EC2FF0E0EE0FFF1FED5DFE4F31
:1032C000808191810E940D14CF9108951092B900D0
:1032D0008CE08093B8000895A0E0B0E0E2E7F9E167
:1032E0000C94511AB82EEB010E947B136C01C4316F
:1032F000D10558F0CF3F8FEFD80759F0CE0164E1E8
:1033000070E00E94361A7B0107C0EE24E394F12C92
:1033100003C025E0E22EF12C84E8A82E94EA992E31
:103320001092BC009092BC000E947B138C01809193
:10333000BC0087FD07C0C8010E946C13E816F9069F
:10334000B0F729C08091B900887F883041F0809122
:10335000B900887F803119F00FEF1FEF1EC0B092C7
:10336000BB00A092BC000E947B138C018091BC002A
:1033700087FD07C0C8010E946C13E816F906B0F774
:103380000AC08091B900887F883111F0803421F71C
:1033900000E010E00EC00EEF1FEFCF3F8FEFD80719
:1033A00009F4BECFC6010E946C13C817D90708F0F4
:1033B000B7CFC801CDB7DEB7EBE00C946D1A0F9311
:1033C0001F93CF93DF93EB018093BB0084E880933E
:1033D000BC000E947B138C018091BC0087FD0DC056
:1033E000CF3F8FEFD807C1F3C8010E946C13C817F5
:1033F000D90790F78EEF9FEF0CC02091B900287F7E
:1034000081E090E0283211F480E090E09195819580
:103410009109DF91CF911F910F9108950F931F9301
:10342000CF93DF93EC0184E88093BC000E947B1370
:103430008C018091BC0087FD0DC0CF3F8FEFD80776
:10344000C1F3C8010E946C13C817D90790F78EEF1B
:103450009FEF03C08091BB0090E0DF91CF911F915F
:103460000F91089584E98093BC000895AA1BBB1BAB
:1034700051E107C0AA1FBB1FA617B70710F0A61B74
:10348000B70B881F991F5A95A9F780959095BC0195
:10349000CD0108952F923F924F925F926F927F924B
:1034A0008F929F92AF92BF92CF92DF92EF92FF9254
:1034B0000F931F93CF93DF93CDB7DEB7CA1BDB0B00
:1034C0000FB6F894DEBF0FBECDBF09942A883988A5
:1034D00048885F846E847D848C849B84AA84B984AC
:1034E000C884DF80EE80FD800C811B81AA81B981B8
:1034F000CE0FD11D0FB6F894DEBF0FBECDBFED01CC
:103500000895F999FECF92BD81BDF89A992780B5AB
:103510000895A6E1B0E044E050E00C94CB1AA8E195
:10352000B0E042E050E00C94CB1ADC01A40FB51FD0
:103530004150504048F0CB01840F951F2E910E94BE
:10354000A61A41505040D0F70895262FF999FECF82
:1035500092BD81BDF89A019700B4021639F01FBAE6
:1035600020BD0FB6F894FA9AF99A0FBE0895039603
:10357000272F0E94A61A0E94A51A252F0E94A61A7C
:10358000242F0C94A61A0196272F0E94A61A0C9499
:10359000A51ADC01CB01FC01F999FECF06C0F2BDF2
:1035A000E1BDF89A319600B40D9241505040B8F701
:1035B0000895EE0FFF1F0590F491E02D09940F93ED
:1035C0001F93CF93DF938230910510F482E090E057
:1035D000E0918C02F0918D0220E030E0A0E0B0E0BC
:1035E000309719F1408151810281138148175907A1
:1035F000C8F08417950769F4109731F012960C9370
:10360000129713961C9327C000938C0210938D027F
:1036100022C02115310519F04217530718F49A01F9
:10362000BD01EF01DF01F801DBCF21153105F9F014
:10363000281B390B2430310580F48A819B81611568
:10364000710521F0FB019383828304C090938D0266
:1036500080938C02FE01329644C0FE01E20FF31FFC
:103660008193919322503109398328833AC0209164
:103670008A0230918B02232B41F420910201309178
:10368000030130938B0220938A0220910001309134
:1036900001012115310541F42DB73EB740910401D8
:1036A00050910501241B350BE0918A02F0918B02A9
:1036B000E217F307A0F42E1B3F0B2817390778F009
:1036C000AC014E5F5F4F2417350748F04E0F5F1F68
:1036D00050938B0240938A028193919302C0E0E061
:1036E000F0E0CF01DF91CF911F910F910895CF931B
:1036F000DF93009709F481C0FC0132971382128294
:10370000A0918C02B0918D02109781F420813181BB
:10371000820F931F20918A0230918B02281739075C
:1037200051F5F0938B02E0938A0267C0ED0120E02F
:1037300030E0CE17DF0740F44A815B819E014115DE
:103740005105F1F0EA01F5CFD383C2834081518165
:10375000840F951FC817D90759F488819981840F60
:10376000951F0296918380838A819B8193838283B4
:103770002115310529F4F0938D02E0938C023DC0B0
:10378000E901FB83EA8349915991C40FD51FEC17D6
:10379000FD0761F480819181840F951F0296E901F4
:1037A00099838883828193819B838A83E0E0F0E020
:1037B00012968D919C911397009719F0FD01DC01F1
:1037C000F7CF8D919C9111979D012E5F3F4F820FF6
:1037D000931F20918A0230918B022817390769F4D0
:1037E000309729F410928D0210928C0202C013823D
:1037F0001282B0938B02A0938A02DF91CF91089539
:10380000FB01DC0104C08D910190801921F441502D
:0E3810005040C8F7881B990B0895F894FFCF1D
:10381E0000008E022000010E1350084808490820AF
:10382E000044226D950173010601EB01040224028E
:10383E00818283E200E900EA00B500B600B700CD50
:10384E00008301CC008A01920194012102230224FB
:10385E00022502260227022A02B300B4006F00706E
:10386E00009F01CB019F02A00235524A6C422F42AB
:06387E00785836780000C6
:00000001FF
